{"contracts/VoteVerifier.sol":{"VoteVerifier":{"abi":[{"inputs":[{"internalType":"uint256[2]","name":"a","type":"uint256[2]"},{"internalType":"uint256[2][2]","name":"b","type":"uint256[2][2]"},{"internalType":"uint256[2]","name":"c","type":"uint256[2]"},{"internalType":"uint256[4]","name":"input","type":"uint256[4]"}],"name":"verifyProof","outputs":[{"internalType":"bool","name":"","type":"bool"}],"stateMutability":"pure","type":"function"},{"inputs":[],"name":"version","outputs":[{"internalType":"string","name":"","type":"string"}],"stateMutability":"pure","type":"function"}],"evm":{"bytecode":{"linkReferences":{},"object":"608060405234801561001057600080fd5b506104a5806100206000396000f3fe608060405234801561001057600080fd5b50600436106100365760003560e01c806354fd4d501461003b5780635fe8c13b14610076575b600080fd5b604080518082018252601081526f04d6f636b56657269666965722d312e360841b6020820152905161006d9190610291565b60405180910390f35b610089610084366004610391565b610099565b604051901515815260200161006d565b8351600090158015906100af5750602085015115155b6100f85760405162461bcd60e51b8152602060048201526015602482015274496e76616c69642070726f6f6620706f696e74204160581b60448201526064015b60405180910390fd5b8351511580159061010d575083516020015115155b6101515760405162461bcd60e51b815260206004820152601560248201527424b73b30b634b210383937b7b3103837b4b73a102160591b60448201526064016100ef565b8251158015906101645750602083015115155b6101a85760405162461bcd60e51b8152602060048201526015602482015274496e76616c69642070726f6f6620706f696e74204360581b60448201526064016100ef565b81516000036101ef5760405162461bcd60e51b8152602060048201526013602482015272125b9d985b1a59081b595c9adb19481c9bdbdd606a1b60448201526064016100ef565b602082015160000361023c5760405162461bcd60e51b8152602060048201526016602482015275092dcecc2d8d2c840dcead8d8d2ccd2cae440d0c2e6d60531b60448201526064016100ef565b6060820151600210156102865760405162461bcd60e51b8152602060048201526012602482015271496e76616c696420766f74652076616c756560701b60448201526064016100ef565b506001949350505050565b600060208083528351808285015260005b818110156102be578581018301518582016040015282016102a2565b506000604082860101526040601f19601f8301168501019250505092915050565b634e487b7160e01b600052604160045260246000fd5b6040805190810167ffffffffffffffff81118282101715610318576103186102df565b60405290565b6040516080810167ffffffffffffffff81118282101715610318576103186102df565b600082601f83011261035257600080fd5b61035a6102f5565b80604084018581111561036c57600080fd5b845b8181101561038657803584526020938401930161036e565b509095945050505050565b6000806000806101808086880312156103a957600080fd5b6103b38787610341565b9450604087605f8801126103c657600080fd5b6103ce6102f5565b8060c089018a8111156103e057600080fd5b838a015b81811015610405576103f68c82610341565b845260209093019284016103e4565b508197506104138b82610341565b9650505050508661011f87011261042957600080fd5b61043161031e565b90860190808883111561044357600080fd5b61010088015b83811015610461578035835260209283019201610449565b50959894975092955050505056fea2646970667358221220aac53ed2e35f38a3c768e18b266dcb4a278cda8be273c1b42e1e8caa3ed59e7164736f6c63430008130033","opcodes":"PUSH1 0x80 PUSH1 0x40 MSTORE CALLVALUE DUP1 ISZERO PUSH2 0x10 JUMPI PUSH1 0x0 DUP1 REVERT JUMPDEST POP PUSH2 0x4A5 DUP1 PUSH2 0x20 PUSH1 0x0 CODECOPY PUSH1 0x0 RETURN INVALID PUSH1 0x80 PUSH1 0x40 MSTORE CALLVALUE DUP1 ISZERO PUSH2 0x10 JUMPI PUSH1 0x0 DUP1 REVERT JUMPDEST POP PUSH1 0x4 CALLDATASIZE LT PUSH2 0x36 JUMPI PUSH1 0x0 CALLDATALOAD PUSH1 0xE0 SHR DUP1 PUSH4 0x54FD4D50 EQ PUSH2 0x3B JUMPI DUP1 PUSH4 0x5FE8C13B EQ PUSH2 0x76 JUMPI JUMPDEST PUSH1 0x0 DUP1 REVERT JUMPDEST PUSH1 0x40 DUP1 MLOAD DUP1 DUP3 ADD DUP3 MSTORE PUSH1 0x10 DUP2 MSTORE PUSH16 0x4D6F636B56657269666965722D312E3 PUSH1 0x84 SHL PUSH1 0x20 DUP3 ADD MSTORE SWAP1 MLOAD PUSH2 0x6D SWAP2 SWAP1 PUSH2 0x291 JUMP JUMPDEST PUSH1 0x40 MLOAD DUP1 SWAP2 SUB SWAP1 RETURN JUMPDEST PUSH2 0x89 PUSH2 0x84 CALLDATASIZE PUSH1 0x4 PUSH2 0x391 JUMP JUMPDEST PUSH2 0x99 JUMP JUMPDEST PUSH1 0x40 MLOAD SWAP1 ISZERO ISZERO DUP2 MSTORE PUSH1 0x20 ADD PUSH2 0x6D JUMP JUMPDEST DUP4 MLOAD PUSH1 0x0 SWAP1 ISZERO DUP1 ISZERO SWAP1 PUSH2 0xAF JUMPI POP PUSH1 0x20 DUP6 ADD MLOAD ISZERO ISZERO JUMPDEST PUSH2 0xF8 JUMPI PUSH1 0x40 MLOAD PUSH3 0x461BCD PUSH1 0xE5 SHL DUP2 MSTORE PUSH1 0x20 PUSH1 0x4 DUP3 ADD MSTORE PUSH1 0x15 PUSH1 0x24 DUP3 ADD MSTORE PUSH21 0x496E76616C69642070726F6F6620706F696E742041 PUSH1 0x58 SHL PUSH1 0x44 DUP3 ADD MSTORE PUSH1 0x64 ADD JUMPDEST PUSH1 0x40 MLOAD DUP1 SWAP2 SUB SWAP1 REVERT JUMPDEST DUP4 MLOAD MLOAD ISZERO DUP1 ISZERO SWAP1 PUSH2 0x10D JUMPI POP DUP4 MLOAD PUSH1 0x20 ADD MLOAD ISZERO ISZERO JUMPDEST PUSH2 0x151 JUMPI PUSH1 0x40 MLOAD PUSH3 0x461BCD PUSH1 0xE5 SHL DUP2 MSTORE PUSH1 0x20 PUSH1 0x4 DUP3 ADD MSTORE PUSH1 0x15 PUSH1 0x24 DUP3 ADD MSTORE PUSH21 0x24B73B30B634B210383937B7B3103837B4B73A1021 PUSH1 0x59 SHL PUSH1 0x44 DUP3 ADD MSTORE PUSH1 0x64 ADD PUSH2 0xEF JUMP JUMPDEST DUP3 MLOAD ISZERO DUP1 ISZERO SWAP1 PUSH2 0x164 JUMPI POP PUSH1 0x20 DUP4 ADD MLOAD ISZERO ISZERO JUMPDEST PUSH2 0x1A8 JUMPI PUSH1 0x40 MLOAD PUSH3 0x461BCD PUSH1 0xE5 SHL DUP2 MSTORE PUSH1 0x20 PUSH1 0x4 DUP3 ADD MSTORE PUSH1 0x15 PUSH1 0x24 DUP3 ADD MSTORE PUSH21 0x496E76616C69642070726F6F6620706F696E742043 PUSH1 0x58 SHL PUSH1 0x44 DUP3 ADD MSTORE PUSH1 0x64 ADD PUSH2 0xEF JUMP JUMPDEST DUP2 MLOAD PUSH1 0x0 SUB PUSH2 0x1EF JUMPI PUSH1 0x40 MLOAD PUSH3 0x461BCD PUSH1 0xE5 SHL DUP2 MSTORE PUSH1 0x20 PUSH1 0x4 DUP3 ADD MSTORE PUSH1 0x13 PUSH1 0x24 DUP3 ADD MSTORE PUSH19 0x125B9D985B1A59081B595C9ADB19481C9BDBDD PUSH1 0x6A SHL PUSH1 0x44 DUP3 ADD MSTORE PUSH1 0x64 ADD PUSH2 0xEF JUMP JUMPDEST PUSH1 0x20 DUP3 ADD MLOAD PUSH1 0x0 SUB PUSH2 0x23C JUMPI PUSH1 0x40 MLOAD PUSH3 0x461BCD PUSH1 0xE5 SHL DUP2 MSTORE PUSH1 0x20 PUSH1 0x4 DUP3 ADD MSTORE PUSH1 0x16 PUSH1 0x24 DUP3 ADD MSTORE PUSH22 0x92DCECC2D8D2C840DCEAD8D8D2CCD2CAE440D0C2E6D PUSH1 0x53 SHL PUSH1 0x44 DUP3 ADD MSTORE PUSH1 0x64 ADD PUSH2 0xEF JUMP JUMPDEST PUSH1 0x60 DUP3 ADD MLOAD PUSH1 0x2 LT ISZERO PUSH2 0x286 JUMPI PUSH1 0x40 MLOAD PUSH3 0x461BCD PUSH1 0xE5 SHL DUP2 MSTORE PUSH1 0x20 PUSH1 0x4 DUP3 ADD MSTORE PUSH1 0x12 PUSH1 0x24 DUP3 ADD MSTORE PUSH18 0x496E76616C696420766F74652076616C7565 PUSH1 0x70 SHL PUSH1 0x44 DUP3 ADD MSTORE PUSH1 0x64 ADD PUSH2 0xEF JUMP JUMPDEST POP PUSH1 0x1 SWAP5 SWAP4 POP POP POP POP JUMP JUMPDEST PUSH1 0x0 PUSH1 0x20 DUP1 DUP4 MSTORE DUP4 MLOAD DUP1 DUP3 DUP6 ADD MSTORE PUSH1 0x0 JUMPDEST DUP2 DUP2 LT ISZERO PUSH2 0x2BE JUMPI DUP6 DUP2 ADD DUP4 ADD MLOAD DUP6 DUP3 ADD PUSH1 0x40 ADD MSTORE DUP3 ADD PUSH2 0x2A2 JUMP JUMPDEST POP PUSH1 0x0 PUSH1 0x40 DUP3 DUP7 ADD ADD MSTORE PUSH1 0x40 PUSH1 0x1F NOT PUSH1 0x1F DUP4 ADD AND DUP6 ADD ADD SWAP3 POP POP POP SWAP3 SWAP2 POP POP JUMP JUMPDEST PUSH4 0x4E487B71 PUSH1 0xE0 SHL PUSH1 0x0 MSTORE PUSH1 0x41 PUSH1 0x4 MSTORE PUSH1 0x24 PUSH1 0x0 REVERT JUMPDEST PUSH1 0x40 DUP1 MLOAD SWAP1 DUP2 ADD PUSH8 0xFFFFFFFFFFFFFFFF DUP2 GT DUP3 DUP3 LT OR ISZERO PUSH2 0x318 JUMPI PUSH2 0x318 PUSH2 0x2DF JUMP JUMPDEST PUSH1 0x40 MSTORE SWAP1 JUMP JUMPDEST PUSH1 0x40 MLOAD PUSH1 0x80 DUP2 ADD PUSH8 0xFFFFFFFFFFFFFFFF DUP2 GT DUP3 DUP3 LT OR ISZERO PUSH2 0x318 JUMPI PUSH2 0x318 PUSH2 0x2DF JUMP JUMPDEST PUSH1 0x0 DUP3 PUSH1 0x1F DUP4 ADD SLT PUSH2 0x352 JUMPI PUSH1 0x0 DUP1 REVERT JUMPDEST PUSH2 0x35A PUSH2 0x2F5 JUMP JUMPDEST DUP1 PUSH1 0x40 DUP5 ADD DUP6 DUP2 GT ISZERO PUSH2 0x36C JUMPI PUSH1 0x0 DUP1 REVERT JUMPDEST DUP5 JUMPDEST DUP2 DUP2 LT ISZERO PUSH2 0x386 JUMPI DUP1 CALLDATALOAD DUP5 MSTORE PUSH1 0x20 SWAP4 DUP5 ADD SWAP4 ADD PUSH2 0x36E JUMP JUMPDEST POP SWAP1 SWAP6 SWAP5 POP POP POP POP POP JUMP JUMPDEST PUSH1 0x0 DUP1 PUSH1 0x0 DUP1 PUSH2 0x180 DUP1 DUP7 DUP9 SUB SLT ISZERO PUSH2 0x3A9 JUMPI PUSH1 0x0 DUP1 REVERT JUMPDEST PUSH2 0x3B3 DUP8 DUP8 PUSH2 0x341 JUMP JUMPDEST SWAP5 POP PUSH1 0x40 DUP8 PUSH1 0x5F DUP9 ADD SLT PUSH2 0x3C6 JUMPI PUSH1 0x0 DUP1 REVERT JUMPDEST PUSH2 0x3CE PUSH2 0x2F5 JUMP JUMPDEST DUP1 PUSH1 0xC0 DUP10 ADD DUP11 DUP2 GT ISZERO PUSH2 0x3E0 JUMPI PUSH1 0x0 DUP1 REVERT JUMPDEST DUP4 DUP11 ADD JUMPDEST DUP2 DUP2 LT ISZERO PUSH2 0x405 JUMPI PUSH2 0x3F6 DUP13 DUP3 PUSH2 0x341 JUMP JUMPDEST DUP5 MSTORE PUSH1 0x20 SWAP1 SWAP4 ADD SWAP3 DUP5 ADD PUSH2 0x3E4 JUMP JUMPDEST POP DUP2 SWAP8 POP PUSH2 0x413 DUP12 DUP3 PUSH2 0x341 JUMP JUMPDEST SWAP7 POP POP POP POP POP DUP7 PUSH2 0x11F DUP8 ADD SLT PUSH2 0x429 JUMPI PUSH1 0x0 DUP1 REVERT JUMPDEST PUSH2 0x431 PUSH2 0x31E JUMP JUMPDEST SWAP1 DUP7 ADD SWAP1 DUP1 DUP9 DUP4 GT ISZERO PUSH2 0x443 JUMPI PUSH1 0x0 DUP1 REVERT JUMPDEST PUSH2 0x100 DUP9 ADD JUMPDEST DUP4 DUP2 LT ISZERO PUSH2 0x461 JUMPI DUP1 CALLDATALOAD DUP4 MSTORE PUSH1 0x20 SWAP3 DUP4 ADD SWAP3 ADD PUSH2 0x449 JUMP JUMPDEST POP SWAP6 SWAP9 SWAP5 SWAP8 POP SWAP3 SWAP6 POP POP POP POP JUMP INVALID LOG2 PUSH5 0x6970667358 0x22 SLT KECCAK256 0xAA 0xC5 RETURNDATACOPY 0xD2 0xE3 0x5F CODESIZE LOG3 0xC7 PUSH9 0xE18B266DCB4A278CDA DUP12 0xE2 PUSH20 0xC1B42E1E8CAA3ED59E7164736F6C634300081300 CALLER "},"methodIdentifiers":{"verifyProof(uint256[2],uint256[2][2],uint256[2],uint256[4])":"5fe8c13b","version()":"54fd4d50"}}}}}