{"contracts/VoteVerifier.sol":{"Groth16Verifier":{"abi":[{"inputs":[{"internalType":"uint256[2]","name":"_pA","type":"uint256[2]"},{"internalType":"uint256[2][2]","name":"_pB","type":"uint256[2][2]"},{"internalType":"uint256[2]","name":"_pC","type":"uint256[2]"},{"internalType":"uint256[4]","name":"_pubSignals","type":"uint256[4]"}],"name":"verifyProof","outputs":[{"internalType":"bool","name":"","type":"bool"}],"stateMutability":"view","type":"function"}],"evm":{"bytecode":{"linkReferences":{},"object":"608060405234801561001057600080fd5b5061067a806100206000396000f3fe608060405234801561001057600080fd5b506004361061002b5760003560e01c80635fe8c13b14610030575b600080fd5b61004361003e3660046105ea565b610057565b604051901515815260200160405180910390f35b600061056a565b7f30644e72e131a029b85045b68181585d2833e84879b9709143e1f593f0000001811061008f576000805260206000f35b50565b600060405183815284602082015285604082015260408160608360076107d05a03fa9150816100c5576000805260206000f35b825160408201526020830151606082015260408360808360066107d05a03fa915050806100f6576000805260206000f35b5050505050565b7f18e7cd26ac77ae0d65b0f855932ed85a2405907ddf73c219baa7a450fb8d62a985527f16ac700ce19f1b73385c4d12aa63363a1e019772355cd6fada92865a2241df5260208601526000608086018661019a87357f0bb3bed373639d2d19572c1bab79b0731e1400e086cd5aa6f0457bec6abaa9317f2697d26ce4d356eec0234e111e680bfd7f4ad0ddb4a9455ac67384648153baf784610092565b6101ea60208801357f1403f37c945216b0a9fd6cbf8c58efe4dc190ea2c19583ccc64f2e78782b6acd7f0e2a3e5047e51b26c76b4e4cbfdbbf3e9b23b819977db3f6d45681ae3abd7bc884610092565b61023a60408801357f2776a1f0c3dca49af2876f3011e0fee26aa21ad7b4f38553ad292e5214fd352f7f1773b69b097585c1b5c355ae25b8f06877cc4bd7e28b783d3391f1005aa8dad984610092565b61028a60608801357f0e2e33260e3ae538e5fbdec1ca210473d9a86f3d5cfdce45a1e6bc35464549887f2298ca10619c059ad01432dc40c9c1add955656087d2b72a54bfab9b459bb29c84610092565b50823581527f30644e72e131a029b85045b68181585d97816a916871ca8d3c208c16d87cfd4760208401357f30644e72e131a029b85045b68181585d97816a916871ca8d3c208c16d87cfd4703066020820152833560408201526020840135606082015260408401356080820152606084013560a08201527f10423820fb25183481edbb07daddaee471a97147875e9054f38ce91368795bb660c08201527f0ea00d83b57c48d1c69a59961cd4cbf0f44abcc355e54a83fbceccad6dbf9f2e60e08201527f01383df9d174c9ca0f8ac59d561d5f7f484f859d7741754838999e9597b4c64d6101008201527f2d3f6ee0cedcf720f29c36d4f3c2e106fd5ba83f6f4485a5229ecd621e5f0a4b6101208201527f2e7935d88b30b5f38db080755e6e7ce75e129be80ae77f4a4cf3d194c2f335f56101408201527f16edac5cfaa61781bb884801c930cb3489cc41d54410a42a6aefdd74896db23a610160820152600087015161018082015260206000018701516101a08201527f198e9393920d483a7260bfb731fb5d25f1aa493335a9e71297e485b7aef312c26101c08201527f1800deef121f1e76426a00665e5c4479674322d4f75edadd46debd5cd992f6ed6101e08201527f090689d0585ff075ec9e99ad690c3395bc4b313370b38ef355acdadcd122975b6102008201527f12c85ea5db8c6deb4aab71808dcb408fe3d1e7690c43d37b4ce6cc0166fa7daa610220820152843561024082015260208501356102608201527f198e9393920d483a7260bfb731fb5d25f1aa493335a9e71297e485b7aef312c26102808201527f1800deef121f1e76426a00665e5c4479674322d4f75edadd46debd5cd992f6ed6102a08201527f090689d0585ff075ec9e99ad690c3395bc4b313370b38ef355acdadcd122975b6102c08201527f12c85ea5db8c6deb4aab71808dcb408fe3d1e7690c43d37b4ce6cc0166fa7daa6102e08201526020816103008360086107d05a03fa9051169695505050505050565b6040516103808101604052610582600084013561005e565b61058f602084013561005e565b61059c604084013561005e565b6105a9606084013561005e565b6105b6818486888a6100fd565b90508060005260206000f35b80604081018310156105d357600080fd5b92915050565b80608081018310156105d357600080fd5b600080600080610180858703121561060157600080fd5b61060b86866105c2565b935061061a86604087016105d9565b92506106298660c087016105c2565b91506106398661010087016105d9565b90509295919450925056fea26469706673582212200aa21f1c3d6308d42c725675bd6fcabcee3d242fb5b0f1796151348dcb358c6164736f6c63430008130033","opcodes":"PUSH1 0x80 PUSH1 0x40 MSTORE CALLVALUE DUP1 ISZERO PUSH2 0x10 JUMPI PUSH1 0x0 DUP1 REVERT JUMPDEST POP PUSH2 0x67A DUP1 PUSH2 0x20 PUSH1 0x0 CODECOPY PUSH1 0x0 RETURN INVALID PUSH1 0x80 PUSH1 0x40 MSTORE CALLVALUE DUP1 ISZERO PUSH2 0x10 JUMPI PUSH1 0x0 DUP1 REVERT JUMPDEST POP PUSH1 0x4 CALLDATASIZE LT PUSH2 0x2B JUMPI PUSH1 0x0 CALLDATALOAD PUSH1 0xE0 SHR DUP1 PUSH4 0x5FE8C13B EQ PUSH2 0x30 JUMPI JUMPDEST PUSH1 0x0 DUP1 REVERT JUMPDEST PUSH2 0x43 PUSH2 0x3E CALLDATASIZE PUSH1 0x4 PUSH2 0x5EA JUMP JUMPDEST PUSH2 0x57 JUMP JUMPDEST PUSH1 0x40 MLOAD SWAP1 ISZERO ISZERO DUP2 MSTORE PUSH1 0x20 ADD PUSH1 0x40 MLOAD DUP1 SWAP2 SUB SWAP1 RETURN JUMPDEST PUSH1 0x0 PUSH2 0x56A JUMP JUMPDEST PUSH32 0x30644E72E131A029B85045B68181585D2833E84879B9709143E1F593F0000001 DUP2 LT PUSH2 0x8F JUMPI PUSH1 0x0 DUP1 MSTORE PUSH1 0x20 PUSH1 0x0 RETURN JUMPDEST POP JUMP JUMPDEST PUSH1 0x0 PUSH1 0x40 MLOAD DUP4 DUP2 MSTORE DUP5 PUSH1 0x20 DUP3 ADD MSTORE DUP6 PUSH1 0x40 DUP3 ADD MSTORE PUSH1 0x40 DUP2 PUSH1 0x60 DUP4 PUSH1 0x7 PUSH2 0x7D0 GAS SUB STATICCALL SWAP2 POP DUP2 PUSH2 0xC5 JUMPI PUSH1 0x0 DUP1 MSTORE PUSH1 0x20 PUSH1 0x0 RETURN JUMPDEST DUP3 MLOAD PUSH1 0x40 DUP3 ADD MSTORE PUSH1 0x20 DUP4 ADD MLOAD PUSH1 0x60 DUP3 ADD MSTORE PUSH1 0x40 DUP4 PUSH1 0x80 DUP4 PUSH1 0x6 PUSH2 0x7D0 GAS SUB STATICCALL SWAP2 POP POP DUP1 PUSH2 0xF6 JUMPI PUSH1 0x0 DUP1 MSTORE PUSH1 0x20 PUSH1 0x0 RETURN JUMPDEST POP POP POP POP POP JUMP JUMPDEST PUSH32 0x18E7CD26AC77AE0D65B0F855932ED85A2405907DDF73C219BAA7A450FB8D62A9 DUP6 MSTORE PUSH32 0x16AC700CE19F1B73385C4D12AA63363A1E019772355CD6FADA92865A2241DF52 PUSH1 0x20 DUP7 ADD MSTORE PUSH1 0x0 PUSH1 0x80 DUP7 ADD DUP7 PUSH2 0x19A DUP8 CALLDATALOAD PUSH32 0xBB3BED373639D2D19572C1BAB79B0731E1400E086CD5AA6F0457BEC6ABAA931 PUSH32 0x2697D26CE4D356EEC0234E111E680BFD7F4AD0DDB4A9455AC67384648153BAF7 DUP5 PUSH2 0x92 JUMP JUMPDEST PUSH2 0x1EA PUSH1 0x20 DUP9 ADD CALLDATALOAD PUSH32 0x1403F37C945216B0A9FD6CBF8C58EFE4DC190EA2C19583CCC64F2E78782B6ACD PUSH32 0xE2A3E5047E51B26C76B4E4CBFDBBF3E9B23B819977DB3F6D45681AE3ABD7BC8 DUP5 PUSH2 0x92 JUMP JUMPDEST PUSH2 0x23A PUSH1 0x40 DUP9 ADD CALLDATALOAD PUSH32 0x2776A1F0C3DCA49AF2876F3011E0FEE26AA21AD7B4F38553AD292E5214FD352F PUSH32 0x1773B69B097585C1B5C355AE25B8F06877CC4BD7E28B783D3391F1005AA8DAD9 DUP5 PUSH2 0x92 JUMP JUMPDEST PUSH2 0x28A PUSH1 0x60 DUP9 ADD CALLDATALOAD PUSH32 0xE2E33260E3AE538E5FBDEC1CA210473D9A86F3D5CFDCE45A1E6BC3546454988 PUSH32 0x2298CA10619C059AD01432DC40C9C1ADD955656087D2B72A54BFAB9B459BB29C DUP5 PUSH2 0x92 JUMP JUMPDEST POP DUP3 CALLDATALOAD DUP2 MSTORE PUSH32 0x30644E72E131A029B85045B68181585D97816A916871CA8D3C208C16D87CFD47 PUSH1 0x20 DUP5 ADD CALLDATALOAD PUSH32 0x30644E72E131A029B85045B68181585D97816A916871CA8D3C208C16D87CFD47 SUB MOD PUSH1 0x20 DUP3 ADD MSTORE DUP4 CALLDATALOAD PUSH1 0x40 DUP3 ADD MSTORE PUSH1 0x20 DUP5 ADD CALLDATALOAD PUSH1 0x60 DUP3 ADD MSTORE PUSH1 0x40 DUP5 ADD CALLDATALOAD PUSH1 0x80 DUP3 ADD MSTORE PUSH1 0x60 DUP5 ADD CALLDATALOAD PUSH1 0xA0 DUP3 ADD MSTORE PUSH32 0x10423820FB25183481EDBB07DADDAEE471A97147875E9054F38CE91368795BB6 PUSH1 0xC0 DUP3 ADD MSTORE PUSH32 0xEA00D83B57C48D1C69A59961CD4CBF0F44ABCC355E54A83FBCECCAD6DBF9F2E PUSH1 0xE0 DUP3 ADD MSTORE PUSH32 0x1383DF9D174C9CA0F8AC59D561D5F7F484F859D7741754838999E9597B4C64D PUSH2 0x100 DUP3 ADD MSTORE PUSH32 0x2D3F6EE0CEDCF720F29C36D4F3C2E106FD5BA83F6F4485A5229ECD621E5F0A4B PUSH2 0x120 DUP3 ADD MSTORE PUSH32 0x2E7935D88B30B5F38DB080755E6E7CE75E129BE80AE77F4A4CF3D194C2F335F5 PUSH2 0x140 DUP3 ADD MSTORE PUSH32 0x16EDAC5CFAA61781BB884801C930CB3489CC41D54410A42A6AEFDD74896DB23A PUSH2 0x160 DUP3 ADD MSTORE PUSH1 0x0 DUP8 ADD MLOAD PUSH2 0x180 DUP3 ADD MSTORE PUSH1 0x20 PUSH1 0x0 ADD DUP8 ADD MLOAD PUSH2 0x1A0 DUP3 ADD MSTORE PUSH32 0x198E9393920D483A7260BFB731FB5D25F1AA493335A9E71297E485B7AEF312C2 PUSH2 0x1C0 DUP3 ADD MSTORE PUSH32 0x1800DEEF121F1E76426A00665E5C4479674322D4F75EDADD46DEBD5CD992F6ED PUSH2 0x1E0 DUP3 ADD MSTORE PUSH32 0x90689D0585FF075EC9E99AD690C3395BC4B313370B38EF355ACDADCD122975B PUSH2 0x200 DUP3 ADD MSTORE PUSH32 0x12C85EA5DB8C6DEB4AAB71808DCB408FE3D1E7690C43D37B4CE6CC0166FA7DAA PUSH2 0x220 DUP3 ADD MSTORE DUP5 CALLDATALOAD PUSH2 0x240 DUP3 ADD MSTORE PUSH1 0x20 DUP6 ADD CALLDATALOAD PUSH2 0x260 DUP3 ADD MSTORE PUSH32 0x198E9393920D483A7260BFB731FB5D25F1AA493335A9E71297E485B7AEF312C2 PUSH2 0x280 DUP3 ADD MSTORE PUSH32 0x1800DEEF121F1E76426A00665E5C4479674322D4F75EDADD46DEBD5CD992F6ED PUSH2 0x2A0 DUP3 ADD MSTORE PUSH32 0x90689D0585FF075EC9E99AD690C3395BC4B313370B38EF355ACDADCD122975B PUSH2 0x2C0 DUP3 ADD MSTORE PUSH32 0x12C85EA5DB8C6DEB4AAB71808DCB408FE3D1E7690C43D37B4CE6CC0166FA7DAA PUSH2 0x2E0 DUP3 ADD MSTORE PUSH1 0x20 DUP2 PUSH2 0x300 DUP4 PUSH1 0x8 PUSH2 0x7D0 GAS SUB STATICCALL SWAP1 MLOAD AND SWAP7 SWAP6 POP POP POP POP POP POP JUMP JUMPDEST PUSH1 0x40 MLOAD PUSH2 0x380 DUP2 ADD PUSH1 0x40 MSTORE PUSH2 0x582 PUSH1 0x0 DUP5 ADD CALLDATALOAD PUSH2 0x5E JUMP JUMPDEST PUSH2 0x58F PUSH1 0x20 DUP5 ADD CALLDATALOAD PUSH2 0x5E JUMP JUMPDEST PUSH2 0x59C PUSH1 0x40 DUP5 ADD CALLDATALOAD PUSH2 0x5E JUMP JUMPDEST PUSH2 0x5A9 PUSH1 0x60 DUP5 ADD CALLDATALOAD PUSH2 0x5E JUMP JUMPDEST PUSH2 0x5B6 DUP2 DUP5 DUP7 DUP9 DUP11 PUSH2 0xFD JUMP JUMPDEST SWAP1 POP DUP1 PUSH1 0x0 MSTORE PUSH1 0x20 PUSH1 0x0 RETURN JUMPDEST DUP1 PUSH1 0x40 DUP2 ADD DUP4 LT ISZERO PUSH2 0x5D3 JUMPI PUSH1 0x0 DUP1 REVERT JUMPDEST SWAP3 SWAP2 POP POP JUMP JUMPDEST DUP1 PUSH1 0x80 DUP2 ADD DUP4 LT ISZERO PUSH2 0x5D3 JUMPI PUSH1 0x0 DUP1 REVERT JUMPDEST PUSH1 0x0 DUP1 PUSH1 0x0 DUP1 PUSH2 0x180 DUP6 DUP8 SUB SLT ISZERO PUSH2 0x601 JUMPI PUSH1 0x0 DUP1 REVERT JUMPDEST PUSH2 0x60B DUP7 DUP7 PUSH2 0x5C2 JUMP JUMPDEST SWAP4 POP PUSH2 0x61A DUP7 PUSH1 0x40 DUP8 ADD PUSH2 0x5D9 JUMP JUMPDEST SWAP3 POP PUSH2 0x629 DUP7 PUSH1 0xC0 DUP8 ADD PUSH2 0x5C2 JUMP JUMPDEST SWAP2 POP PUSH2 0x639 DUP7 PUSH2 0x100 DUP8 ADD PUSH2 0x5D9 JUMP JUMPDEST SWAP1 POP SWAP3 SWAP6 SWAP2 SWAP5 POP SWAP3 POP JUMP INVALID LOG2 PUSH5 0x6970667358 0x22 SLT KECCAK256 EXP LOG2 0x1F SHR RETURNDATASIZE PUSH4 0x8D42C72 JUMP PUSH22 0xBD6FCABCEE3D242FB5B0F1796151348DCB358C616473 PUSH16 0x6C634300081300330000000000000000 "},"methodIdentifiers":{"verifyProof(uint256[2],uint256[2][2],uint256[2],uint256[4])":"5fe8c13b"}}}}}