{
  "_format": "hh-sol-artifact-1",
  "contractName": "DAOVoting",
  "sourceName": "contracts/DAOVoting.sol",
  "abi": [
    {
      "inputs": [
        {
          "internalType": "address",
          "name": "_verifier",
          "type": "address"
        },
        {
          "internalType": "uint256",
          "name": "_merkleRoot",
          "type": "uint256"
        }
      ],
      "stateMutability": "nonpayable",
      "type": "constructor"
    },
    {
      "inputs": [],
      "name": "InvalidProof",
      "type": "error"
    },
    {
      "inputs": [],
      "name": "InvalidVoteValue",
      "type": "error"
    },
    {
      "inputs": [],
      "name": "NullifierAlreadyUsed",
      "type": "error"
    },
    {
      "inputs": [],
      "name": "ProposalAlreadyExecuted",
      "type": "error"
    },
    {
      "inputs": [],
      "name": "ProposalDoesNotExist",
      "type": "error"
    },
    {
      "inputs": [],
      "name": "VotingEnded",
      "type": "error"
    },
    {
      "anonymous": false,
      "inputs": [
        {
          "indexed": true,
          "internalType": "uint256",
          "name": "proposalId",
          "type": "uint256"
        },
        {
          "indexed": false,
          "internalType": "string",
          "name": "description",
          "type": "string"
        },
        {
          "indexed": false,
          "internalType": "uint256",
          "name": "deadline",
          "type": "uint256"
        }
      ],
      "name": "ProposalCreated",
      "type": "event"
    },
    {
      "anonymous": false,
      "inputs": [
        {
          "indexed": true,
          "internalType": "uint256",
          "name": "proposalId",
          "type": "uint256"
        }
      ],
      "name": "ProposalExecuted",
      "type": "event"
    },
    {
      "anonymous": false,
      "inputs": [
        {
          "indexed": true,
          "internalType": "uint256",
          "name": "proposalId",
          "type": "uint256"
        },
        {
          "indexed": false,
          "internalType": "uint256",
          "name": "nullifierHash",
          "type": "uint256"
        },
        {
          "indexed": false,
          "internalType": "uint8",
          "name": "vote",
          "type": "uint8"
        }
      ],
      "name": "VoteCast",
      "type": "event"
    },
    {
      "inputs": [
        {
          "internalType": "string",
          "name": "description",
          "type": "string"
        },
        {
          "internalType": "uint256",
          "name": "duration",
          "type": "uint256"
        }
      ],
      "name": "createProposal",
      "outputs": [
        {
          "internalType": "uint256",
          "name": "",
          "type": "uint256"
        }
      ],
      "stateMutability": "nonpayable",
      "type": "function"
    },
    {
      "inputs": [
        {
          "internalType": "uint256",
          "name": "proposalId",
          "type": "uint256"
        }
      ],
      "name": "executeProposal",
      "outputs": [],
      "stateMutability": "nonpayable",
      "type": "function"
    },
    {
      "inputs": [
        {
          "internalType": "uint256",
          "name": "proposalId",
          "type": "uint256"
        }
      ],
      "name": "getProposalVotes",
      "outputs": [
        {
          "internalType": "uint256",
          "name": "yes",
          "type": "uint256"
        },
        {
          "internalType": "uint256",
          "name": "no",
          "type": "uint256"
        },
        {
          "internalType": "uint256",
          "name": "abstain",
          "type": "uint256"
        }
      ],
      "stateMutability": "view",
      "type": "function"
    },
    {
      "inputs": [],
      "name": "merkleRoot",
      "outputs": [
        {
          "internalType": "uint256",
          "name": "",
          "type": "uint256"
        }
      ],
      "stateMutability": "view",
      "type": "function"
    },
    {
      "inputs": [],
      "name": "proposalCount",
      "outputs": [
        {
          "internalType": "uint256",
          "name": "",
          "type": "uint256"
        }
      ],
      "stateMutability": "view",
      "type": "function"
    },
    {
      "inputs": [
        {
          "internalType": "uint256",
          "name": "",
          "type": "uint256"
        }
      ],
      "name": "proposals",
      "outputs": [
        {
          "internalType": "string",
          "name": "description",
          "type": "string"
        },
        {
          "internalType": "uint256",
          "name": "deadline",
          "type": "uint256"
        },
        {
          "internalType": "uint256",
          "name": "yesVotes",
          "type": "uint256"
        },
        {
          "internalType": "uint256",
          "name": "noVotes",
          "type": "uint256"
        },
        {
          "internalType": "uint256",
          "name": "abstainVotes",
          "type": "uint256"
        },
        {
          "internalType": "bool",
          "name": "executed",
          "type": "bool"
        }
      ],
      "stateMutability": "view",
      "type": "function"
    },
    {
      "inputs": [
        {
          "internalType": "uint256",
          "name": "",
          "type": "uint256"
        }
      ],
      "name": "usedNullifiers",
      "outputs": [
        {
          "internalType": "bool",
          "name": "",
          "type": "bool"
        }
      ],
      "stateMutability": "view",
      "type": "function"
    },
    {
      "inputs": [],
      "name": "verifier",
      "outputs": [
        {
          "internalType": "contract IVerifier",
          "name": "",
          "type": "address"
        }
      ],
      "stateMutability": "view",
      "type": "function"
    },
    {
      "inputs": [
        {
          "internalType": "uint256",
          "name": "proposalId",
          "type": "uint256"
        },
        {
          "internalType": "uint256",
          "name": "nullifierHash",
          "type": "uint256"
        },
        {
          "internalType": "uint8",
          "name": "voteValue",
          "type": "uint8"
        },
        {
          "internalType": "uint256[2]",
          "name": "a",
          "type": "uint256[2]"
        },
        {
          "internalType": "uint256[2][2]",
          "name": "b",
          "type": "uint256[2][2]"
        },
        {
          "internalType": "uint256[2]",
          "name": "c",
          "type": "uint256[2]"
        }
      ],
      "name": "vote",
      "outputs": [],
      "stateMutability": "nonpayable",
      "type": "function"
    }
  ],
  "bytecode": "0x60c060405234801561001057600080fd5b50604051610c7b380380610c7b83398101604081905261002f91610045565b6001600160a01b0390911660805260a05261007f565b6000806040838503121561005857600080fd5b82516001600160a01b038116811461006f57600080fd5b6020939093015192949293505050565b60805160a051610bca6100b16000396000818161011f01526104e801526000818160e001526105350152610bca6000f3fe608060405234801561001057600080fd5b50600436106100935760003560e01c806335facf781161006657806335facf781461014f57806347c6614014610162578063aad2406114610190578063da35c664146101c3578063fae27207146101cc57600080fd5b8063013cf08b146100985780630d61b519146100c65780632b7ac3f3146100db5780632eb4a7ab1461011a575b600080fd5b6100ab6100a63660046106a1565b6101df565b6040516100bd969594939291906106ba565b60405180910390f35b6100d96100d43660046106a1565b61029f565b005b6101027f000000000000000000000000000000000000000000000000000000000000000081565b6040516001600160a01b0390911681526020016100bd565b6101417f000000000000000000000000000000000000000000000000000000000000000081565b6040519081526020016100bd565b61014161015d366004610733565b610357565b6101756101703660046106a1565b6103e4565b604080519384526020840192909252908201526060016100bd565b6101b361019e3660046106a1565b60016020526000908152604090205460ff1681565b60405190151581526020016100bd565b61014160025481565b6100d96101da36600461083a565b610430565b6000602081905290815260409020805481906101fa906108f3565b80601f0160208091040260200160405190810160405280929190818152602001828054610226906108f3565b80156102735780601f1061024857610100808354040283529160200191610273565b820191906000526020600020905b81548152906001019060200180831161025657829003601f168201915b505050600184015460028501546003860154600487015460059097015495969295919450925060ff1686565b60025481106102c157604051636ce3c70160e11b815260040160405180910390fd5b6000818152602081905260409020600581015460ff16156102f5576040516351618d5360e01b815260040160405180910390fd5b8060010154421161031957604051637a19ed0560e01b815260040160405180910390fd5b60058101805460ff1916600117905560405182907f712ae1383f79ac853f8d882153778e0260ef8f03b504e2866e0593e04d2b291f90600090a25050565b600280546000918291908261036b83610943565b9091555060008181526020819052604090209091508061038c8688836109ab565b506103978442610a6c565b6001820181905560405183917ff5dc0da9afa6d080780a49fd8c680f03d2ddf3c067cd6d0c85360c096644d2d3916103d3918a918a9190610a85565b60405180910390a250949350505050565b6000806000600254841061040b57604051636ce3c70160e11b815260040160405180910390fd5b5050506000908152602081905260409020600281015460038201546004909201549092565b600254861061045257604051636ce3c70160e11b815260040160405180910390fd5b60028460ff1611156104775760405163eee3496160e01b815260040160405180910390fd5b600086815260208190526040902060018101544211156104aa57604051637a19ed0560e01b815260040160405180910390fd5b600086815260068201602052604090205460ff16156104dc57604051636569570160e11b815260040160405180910390fd5b604080516080810182527f000000000000000000000000000000000000000000000000000000000000000081526020810188905280820189905260ff871660608201529051635fe8c13b60e01b81526001600160a01b037f00000000000000000000000000000000000000000000000000000000000000001690635fe8c13b90610570908890889088908790600401610ae7565b602060405180830381865afa15801561058d573d6000803e3d6000fd5b505050506040513d601f19601f820116820180604052508101906105b19190610b6b565b6105ce576040516309bde33960e01b815260040160405180910390fd5b600087815260068301602090815260408083208054600160ff19918216811790925592819052908320805490921617905560ff871690036106255760038201805490600061061b83610943565b919050555061065a565b8560ff166001036106425760028201805490600061061b83610943565b60048201805490600061065483610943565b91905055505b6040805188815260ff8816602082015289917f935f47e87ae5c4c26df53f7ef1e206e3b9f95b5bc4d0c3bbabee457ab453ce5c910160405180910390a25050505050505050565b6000602082840312156106b357600080fd5b5035919050565b60c08152600087518060c084015260005b818110156106e8576020818b0181015160e08684010152016106cb565b50600060e0828501015260e0601f19601f83011684010191505086602083015285604083015284606083015283608083015261072860a083018415159052565b979650505050505050565b60008060006040848603121561074857600080fd5b833567ffffffffffffffff8082111561076057600080fd5b818601915086601f83011261077457600080fd5b81358181111561078357600080fd5b87602082850101111561079557600080fd5b6020928301989097509590910135949350505050565b634e487b7160e01b600052604160045260246000fd5b6040805190810167ffffffffffffffff811182821017156107e4576107e46107ab565b60405290565b600082601f8301126107fb57600080fd5b6108036107c1565b80604084018581111561081557600080fd5b845b8181101561082f578035845260209384019301610817565b509095945050505050565b600080600080600080610160878903121561085457600080fd5b86359550602080880135955060408089013560ff8116811461087557600080fd5b95506108848a60608b016107ea565b94508960bf8a011261089557600080fd5b61089d6107c1565b806101208b018c8111156108b057600080fd5b60a08c015b818110156108d4576108c78e826107ea565b84529285019284016108b5565b508196506108e28d826107ea565b955050505050509295509295509295565b600181811c9082168061090757607f821691505b60208210810361092757634e487b7160e01b600052602260045260246000fd5b50919050565b634e487b7160e01b600052601160045260246000fd5b6000600182016109555761095561092d565b5060010190565b601f8211156109a657600081815260208120601f850160051c810160208610156109835750805b601f850160051c820191505b818110156109a25782815560010161098f565b5050505b505050565b67ffffffffffffffff8311156109c3576109c36107ab565b6109d7836109d183546108f3565b8361095c565b6000601f841160018114610a0b57600085156109f35750838201355b600019600387901b1c1916600186901b178355610a65565b600083815260209020601f19861690835b82811015610a3c5786850135825560209485019460019092019101610a1c565b5086821015610a595760001960f88860031b161c19848701351681555b505060018560011b0183555b5050505050565b80820180821115610a7f57610a7f61092d565b92915050565b604081528260408201528284606083013760006060848301015260006060601f19601f8601168301019050826020830152949350505050565b8060005b6002811015610ae1578151845260209384019390910190600101610ac2565b50505050565b6101808101610af68287610abe565b60408083018660005b6002811015610b2657610b13838351610abe565b9183019160209190910190600101610aff565b50505050610b3760c0830185610abe565b61010082018360005b6004811015610b5f578151835260209283019290910190600101610b40565b50505095945050505050565b600060208284031215610b7d57600080fd5b81518015158114610b8d57600080fd5b939250505056fea2646970667358221220cad65590615119dd32143ce4a045e342ba35a8ea58c24d89074ac0d62ac1abf164736f6c63430008130033",
  "linkReferences": {},
  "deployedLinkReferences": {}
}