{
  "_format": "hh-sol-artifact-1",
  "contractName": "Groth16Verifier",
  "sourceName": "contracts/VoteVerifier.sol",
  "abi": [
    {
      "inputs": [
        {
          "internalType": "uint256[2]",
          "name": "_pA",
          "type": "uint256[2]"
        },
        {
          "internalType": "uint256[2][2]",
          "name": "_pB",
          "type": "uint256[2][2]"
        },
        {
          "internalType": "uint256[2]",
          "name": "_pC",
          "type": "uint256[2]"
        },
        {
          "internalType": "uint256[4]",
          "name": "_pubSignals",
          "type": "uint256[4]"
        }
      ],
      "name": "verifyProof",
      "outputs": [
        {
          "internalType": "bool",
          "name": "",
          "type": "bool"
        }
      ],
      "stateMutability": "view",
      "type": "function"
    }
  ],
  "bytecode": "0x608060405234801561001057600080fd5b5061067a806100206000396000f3fe608060405234801561001057600080fd5b506004361061002b5760003560e01c80635fe8c13b14610030575b600080fd5b61004361003e3660046105ea565b610057565b604051901515815260200160405180910390f35b600061056a565b7f30644e72e131a029b85045b68181585d2833e84879b9709143e1f593f0000001811061008f576000805260206000f35b50565b600060405183815284602082015285604082015260408160608360076107d05a03fa9150816100c5576000805260206000f35b825160408201526020830151606082015260408360808360066107d05a03fa915050806100f6576000805260206000f35b5050505050565b7f18e7cd26ac77ae0d65b0f855932ed85a2405907ddf73c219baa7a450fb8d62a985527f16ac700ce19f1b73385c4d12aa63363a1e019772355cd6fada92865a2241df5260208601526000608086018661019a87357f0bb3bed373639d2d19572c1bab79b0731e1400e086cd5aa6f0457bec6abaa9317f2697d26ce4d356eec0234e111e680bfd7f4ad0ddb4a9455ac67384648153baf784610092565b6101ea60208801357f1403f37c945216b0a9fd6cbf8c58efe4dc190ea2c19583ccc64f2e78782b6acd7f0e2a3e5047e51b26c76b4e4cbfdbbf3e9b23b819977db3f6d45681ae3abd7bc884610092565b61023a60408801357f2776a1f0c3dca49af2876f3011e0fee26aa21ad7b4f38553ad292e5214fd352f7f1773b69b097585c1b5c355ae25b8f06877cc4bd7e28b783d3391f1005aa8dad984610092565b61028a60608801357f0e2e33260e3ae538e5fbdec1ca210473d9a86f3d5cfdce45a1e6bc35464549887f2298ca10619c059ad01432dc40c9c1add955656087d2b72a54bfab9b459bb29c84610092565b50823581527f30644e72e131a029b85045b68181585d97816a916871ca8d3c208c16d87cfd4760208401357f30644e72e131a029b85045b68181585d97816a916871ca8d3c208c16d87cfd4703066020820152833560408201526020840135606082015260408401356080820152606084013560a08201527f10423820fb25183481edbb07daddaee471a97147875e9054f38ce91368795bb660c08201527f0ea00d83b57c48d1c69a59961cd4cbf0f44abcc355e54a83fbceccad6dbf9f2e60e08201527f01383df9d174c9ca0f8ac59d561d5f7f484f859d7741754838999e9597b4c64d6101008201527f2d3f6ee0cedcf720f29c36d4f3c2e106fd5ba83f6f4485a5229ecd621e5f0a4b6101208201527f2e7935d88b30b5f38db080755e6e7ce75e129be80ae77f4a4cf3d194c2f335f56101408201527f16edac5cfaa61781bb884801c930cb3489cc41d54410a42a6aefdd74896db23a610160820152600087015161018082015260206000018701516101a08201527f198e9393920d483a7260bfb731fb5d25f1aa493335a9e71297e485b7aef312c26101c08201527f1800deef121f1e76426a00665e5c4479674322d4f75edadd46debd5cd992f6ed6101e08201527f090689d0585ff075ec9e99ad690c3395bc4b313370b38ef355acdadcd122975b6102008201527f12c85ea5db8c6deb4aab71808dcb408fe3d1e7690c43d37b4ce6cc0166fa7daa610220820152843561024082015260208501356102608201527f198e9393920d483a7260bfb731fb5d25f1aa493335a9e71297e485b7aef312c26102808201527f1800deef121f1e76426a00665e5c4479674322d4f75edadd46debd5cd992f6ed6102a08201527f090689d0585ff075ec9e99ad690c3395bc4b313370b38ef355acdadcd122975b6102c08201527f12c85ea5db8c6deb4aab71808dcb408fe3d1e7690c43d37b4ce6cc0166fa7daa6102e08201526020816103008360086107d05a03fa9051169695505050505050565b6040516103808101604052610582600084013561005e565b61058f602084013561005e565b61059c604084013561005e565b6105a9606084013561005e565b6105b6818486888a6100fd565b90508060005260206000f35b80604081018310156105d357600080fd5b92915050565b80608081018310156105d357600080fd5b600080600080610180858703121561060157600080fd5b61060b86866105c2565b935061061a86604087016105d9565b92506106298660c087016105c2565b91506106398661010087016105d9565b90509295919450925056fea26469706673582212200aa21f1c3d6308d42c725675bd6fcabcee3d242fb5b0f1796151348dcb358c6164736f6c63430008130033",
  "linkReferences": {},
  "deployedLinkReferences": {}
}