{
  "_format": "hh-sol-artifact-1",
  "contractName": "VoteVerifier",
  "sourceName": "contracts/VoteVerifier.sol",
  "abi": [
    {
      "inputs": [
        {
          "internalType": "uint256[2]",
          "name": "a",
          "type": "uint256[2]"
        },
        {
          "internalType": "uint256[2][2]",
          "name": "b",
          "type": "uint256[2][2]"
        },
        {
          "internalType": "uint256[2]",
          "name": "c",
          "type": "uint256[2]"
        },
        {
          "internalType": "uint256[4]",
          "name": "input",
          "type": "uint256[4]"
        }
      ],
      "name": "verifyProof",
      "outputs": [
        {
          "internalType": "bool",
          "name": "",
          "type": "bool"
        }
      ],
      "stateMutability": "pure",
      "type": "function"
    },
    {
      "inputs": [],
      "name": "version",
      "outputs": [
        {
          "internalType": "string",
          "name": "",
          "type": "string"
        }
      ],
      "stateMutability": "pure",
      "type": "function"
    }
  ],
  "bytecode": "0x608060405234801561001057600080fd5b506104bb806100206000396000f3fe608060405234801561001057600080fd5b50600436106100365760003560e01c806354fd4d501461003b5780635fe8c13b14610076575b600080fd5b604080518082018252601081526f04d6f636b56657269666965722d312e360841b6020820152905161006d91906102a7565b60405180910390f35b6100896100843660046103a7565b610099565b604051901515815260200161006d565b8351600090158015906100af5750602085015115155b6100f85760405162461bcd60e51b8152602060048201526015602482015274496e76616c69642070726f6f6620706f696e74204160581b60448201526064015b60405180910390fd5b8351511580159061010d575083516020015115155b6101515760405162461bcd60e51b815260206004820152601560248201527424b73b30b634b210383937b7b3103837b4b73a102160591b60448201526064016100ef565b8251158015906101645750602083015115155b6101a85760405162461bcd60e51b8152602060048201526015602482015274496e76616c69642070726f6f6620706f696e74204360581b60448201526064016100ef565b81516000036101ef5760405162461bcd60e51b8152602060048201526013602482015272125b9d985b1a59081b595c9adb19481c9bdbdd606a1b60448201526064016100ef565b602082015160000361023c5760405162461bcd60e51b8152602060048201526016602482015275092dcecc2d8d2c840dcead8d8d2ccd2cae440d0c2e6d60531b60448201526064016100ef565b6060820151600210156102865760405162461bcd60e51b8152602060048201526012602482015271496e76616c696420766f74652076616c756560701b60448201526064016100ef565b60208201516130390361029b5750600061029f565b5060015b949350505050565b600060208083528351808285015260005b818110156102d4578581018301518582016040015282016102b8565b506000604082860101526040601f19601f8301168501019250505092915050565b634e487b7160e01b600052604160045260246000fd5b6040805190810167ffffffffffffffff8111828210171561032e5761032e6102f5565b60405290565b6040516080810167ffffffffffffffff8111828210171561032e5761032e6102f5565b600082601f83011261036857600080fd5b61037061030b565b80604084018581111561038257600080fd5b845b8181101561039c578035845260209384019301610384565b509095945050505050565b6000806000806101808086880312156103bf57600080fd5b6103c98787610357565b9450604087605f8801126103dc57600080fd5b6103e461030b565b8060c089018a8111156103f657600080fd5b838a015b8181101561041b5761040c8c82610357565b845260209093019284016103fa565b508197506104298b82610357565b9650505050508661011f87011261043f57600080fd5b610447610334565b90860190808883111561045957600080fd5b61010088015b8381101561047757803583526020928301920161045f565b50959894975092955050505056fea264697066735822122041c329c8321feb34cff47c150e9b3dfcdbf991b665ca32dae7a55152f85288a664736f6c63430008130033",
  "linkReferences": {},
  "deployedLinkReferences": {}
}