{
  "_format": "hh-sol-artifact-1",
  "contractName": "VoteVerifier",
  "sourceName": "contracts/VoteVerifier.sol",
  "abi": [
    {
      "inputs": [
        {
          "internalType": "uint256[2]",
          "name": "a",
          "type": "uint256[2]"
        },
        {
          "internalType": "uint256[2][2]",
          "name": "b",
          "type": "uint256[2][2]"
        },
        {
          "internalType": "uint256[2]",
          "name": "c",
          "type": "uint256[2]"
        },
        {
          "internalType": "uint256[4]",
          "name": "input",
          "type": "uint256[4]"
        }
      ],
      "name": "verifyProof",
      "outputs": [
        {
          "internalType": "bool",
          "name": "",
          "type": "bool"
        }
      ],
      "stateMutability": "pure",
      "type": "function"
    },
    {
      "inputs": [],
      "name": "version",
      "outputs": [
        {
          "internalType": "string",
          "name": "",
          "type": "string"
        }
      ],
      "stateMutability": "pure",
      "type": "function"
    }
  ],
  "bytecode": "0x608060405234801561001057600080fd5b506104a5806100206000396000f3fe608060405234801561001057600080fd5b50600436106100365760003560e01c806354fd4d501461003b5780635fe8c13b14610076575b600080fd5b604080518082018252601081526f04d6f636b56657269666965722d312e360841b6020820152905161006d9190610291565b60405180910390f35b610089610084366004610391565b610099565b604051901515815260200161006d565b8351600090158015906100af5750602085015115155b6100f85760405162461bcd60e51b8152602060048201526015602482015274496e76616c69642070726f6f6620706f696e74204160581b60448201526064015b60405180910390fd5b8351511580159061010d575083516020015115155b6101515760405162461bcd60e51b815260206004820152601560248201527424b73b30b634b210383937b7b3103837b4b73a102160591b60448201526064016100ef565b8251158015906101645750602083015115155b6101a85760405162461bcd60e51b8152602060048201526015602482015274496e76616c69642070726f6f6620706f696e74204360581b60448201526064016100ef565b81516000036101ef5760405162461bcd60e51b8152602060048201526013602482015272125b9d985b1a59081b595c9adb19481c9bdbdd606a1b60448201526064016100ef565b602082015160000361023c5760405162461bcd60e51b8152602060048201526016602482015275092dcecc2d8d2c840dcead8d8d2ccd2cae440d0c2e6d60531b60448201526064016100ef565b6060820151600210156102865760405162461bcd60e51b8152602060048201526012602482015271496e76616c696420766f74652076616c756560701b60448201526064016100ef565b506001949350505050565b600060208083528351808285015260005b818110156102be578581018301518582016040015282016102a2565b506000604082860101526040601f19601f8301168501019250505092915050565b634e487b7160e01b600052604160045260246000fd5b6040805190810167ffffffffffffffff81118282101715610318576103186102df565b60405290565b6040516080810167ffffffffffffffff81118282101715610318576103186102df565b600082601f83011261035257600080fd5b61035a6102f5565b80604084018581111561036c57600080fd5b845b8181101561038657803584526020938401930161036e565b509095945050505050565b6000806000806101808086880312156103a957600080fd5b6103b38787610341565b9450604087605f8801126103c657600080fd5b6103ce6102f5565b8060c089018a8111156103e057600080fd5b838a015b81811015610405576103f68c82610341565b845260209093019284016103e4565b508197506104138b82610341565b9650505050508661011f87011261042957600080fd5b61043161031e565b90860190808883111561044357600080fd5b61010088015b83811015610461578035835260209283019201610449565b50959894975092955050505056fea2646970667358221220aac53ed2e35f38a3c768e18b266dcb4a278cda8be273c1b42e1e8caa3ed59e7164736f6c63430008130033",
  "linkReferences": {},
  "deployedLinkReferences": {}
}